:0400000067EF3FF077
:107ECE000001DDEF3FF09EA6FED79E961200C58400
:107EDE00C5B4FED7C7501200016E01C0C9FF6AECCF
:107EEE003FF0C5AC02D0010E1200020E1200026E5F
:107EFE00C580C5B0FED79E96C7A61200025073EC81
:107F0E003FF0120093809382500EC76E280EC66EFD
:107F1E00000EC56E130EC86E9D869E961200066EDE
:107F2E00D00E7EEC3FF0030E73EC3FF0065073EC78
:107F3E003FF0035073EC3FF0045073EC3FF00550EC
:107F4E0073EC3FF06EEC3FF01200066E045005101D
:107F5E00046ED00E7EEC3FF0000E73EC3FF0065038
:107F6E0073EC3FF0035073EC3FF0045073EC3FF0B2
:107F7E006EEC3FF01200000E046E000E036E0FD07A
:107F8E00000E066E000E056E065007E1A50E055C8E
:107F9E00D8B003D0054A062AF7D7034A042A01505F
:107FAE00035C02500458D8B01200EAD7720ED36E9A
:107FBE00000E026E320E016EC2EC3FF089EC3FF005
:107FCE00000E026E0A0E016EC2EC3FF0580E036EEA
:107FDE00110E046E600E056E000EACEC3FF0200E1E
:107FEE00036E020E046E170E056E010E96EC3FF038
:027FFE00FFD7AB
:020000040020DA
:08000000FFFFFFFFFFFFFFFF00
:020000040030CA
:0E00000000091F1EFF0181FF0FC00FE00F401F
:00000001FF
